:1000000000700020F95100004152000041520000F0
:100010004152000041520000415200000000000027
:10002000000000000000000000000000415200003D
:100030004152000000000000415200004152000007
:100040004152000041520000415200004152000064
:100050004152000041520000415200004152000054
:100060004152000041520000415200004152000044
:100070004152000041520000415200004152000034
:1003F000415200004152000041520000FFFFFFFF48
:10040000FFFFFFFFFFFFFFFFFFFFFFFFFE7FFFFF7D
:1004100080B400AF164BD3F82C31154A43F080431B
:10042000C2F82C31124B4FF08242C3F8EC20114B32
:100430009B6B104A23F4E06393630F4B8022C3F855
:10044000942000BF0C4BD3F8943003F08003002BB2
:10045000F8D1094B1F221A60074B04221A64064B7D
:100460000022C3F8902000BFBD4680BC704700BF8B
:100470000050064000B0044000B0034080B400AF1C
:10048000084B0C221A6000BF064B1B6803F0800368
:10049000002BF9D0034B9B6C9BB21846BD4680BC29
:1004A000704700BF00B0034080B500AF054801F0C1
:1004B000E0FA0549092004F0DFFAFFF7A9FF00BFC1
:1004C00080BD00BFA084FF1F2C85FF1F80B58EB0AC
:1004D00000AF07F12003184600F03AF978637B6B10
:1004E000012B71D107F1100300221A605A609A6043
:1004F000DA604FF4ED633B6104233B7503237B75A6
:100500007F23BB7597F82630FB7597F82530032BB2
:1005100003D197F82430032B07D813233B7607F138
:100520001003184600F0D0F84EE097F82630222B42
:1005300007D011233B7607F11003184600F0C4F8EA
:1005400042E097F82730F12B03D197F82830902B11
:1005500007D031233B7607F11003184600F0B4F8BA
:1005600032E097F82530032B2ED197F82630222B36
:100570002AD197F82730F12B26D197F82830902BE5
:1005800022D1FFF77BFF03467B863B4600221A60A1
:100590005A609A60DA604FF4ED633B6006233B716A
:1005A00005237B716223BB71F123FB7190233B72A6
:1005B0007B8EDBB27B727B8E1B0A9BB2DBB2BB7283
:1005C0003B46184600F080F83837BD4680BD80B500
:1005D00000AFFFF769FF00F003F8FFF777FFFCE7D4
:1005E00080B483B000AF334BD3F89030314A43F03E
:1005F0008043C2F89030304B1B682F4A43F00043D1
:1006000013602D4B5B682C4A23F4005353602A4B34
:100610001B68294A23F00043136000BF264B1B6868
:1006200003F08073002BF9D0234B244A5A60002337
:100630007B6008E0204A7B682033002142F82310C9
:100640007B6801337B607B687F2BF3D900237B6061
:100650000AE0194A7B6803F508734FF0FF3142F84E
:1006600023107B6801337B607B680F2BF1D9124B21
:10067000134A1A61104B134AC3F884200E4B4FF0F3
:100680008162C3F880200C4B1F221A6000BF0A4B06
:100690001B6803F08073002BF9D100BF064B1B6869
:1006A00003F00063002BF9D100BF00BF0C37BD463B
:1006B00080BC704700500640004002400600DB004E
:1006C0000000FC1F0000A41D80B485B000AF78605E
:1006D0001E4B02221A637B681B681C4A9B04C2F8EB
:1006E00094307B681B791B0403F4702343F044624D
:1006F000164BC3F890207B685B791A067B689B7960
:100700001B041A437B68DB791B0213437A68127A55
:100710001343FB607B685B7A1A067B689B7A1B0439
:100720001A437B68DB7A1B0213437A68127B1343FC
:10073000BB60064AFB68C2F89830044ABB68C2F83E
:100740009C3000BF1437BD4680BC7047004002405B
:1007500080B487B000AF78602F4B1B6B03F00103B0
:10076000002B52D02C4B01221A632B4BD3F8803034
:100770007B61294BD3F884303B613B699B0CC3F30D
:100780000A027B681A607B691B0CDBB203F00F0363
:10079000DAB27B681A71204BD3F88830FB601E4BAD
:1007A000D3F88C30BB60FB681B0EDAB27B685A71E1
:1007B000FB681B0CDAB27B689A71FB681B0ADAB221
:1007C0007B68DA71FB68DAB27B681A72BB681B0E51
:1007D000DAB27B685A72BB681B0CDAB27B689A7219
:1007E000BB681B0ADAB27B68DA72BB68DAB27B6874
:1007F0001A737B681B791B0403F4702343F0806237
:10080000054BC3F88020012300E0002318461C3765
:10081000BD4680BC704700BF0040024080B400AFBE
:10082000084B094A5A60074B5B68064B42F220129C
:100830001A60044B4FF6FF729A6000BFBD4680BC41
:10084000704700BF0020054020C528D980B487B07C
:1008500000AF00237B610123FB74344B1B691B0C2D
:1008600003F00F030133FB60304B1B691B0E03F0D9
:100870000F03013B052B46D801A252F823F000BF1D
:10088000990800009F080000B70800000709000051
:1008900007090000CF080000254B7B6137E0234BA0
:1008A000D3F8083203F001033B603B68002B2DD0E6
:1008B0001F4B7B612AE01D4BD3F8083303F0030381
:1008C0003B601C4A3B6852F823307B611FE0184BA9
:1008D0007B61164BD3F808361B0A03F0070301337C
:1008E000BB60124BD3F808361B0C03F01F03103308
:1008F0007B607B697A6803FB02F2BB685B00B2FB3A
:10090000F3F37B6103E00023FB7400E000BFFB7C9A
:10091000002B05D07A69FB68B2FBF3F3064A13603B
:1009200000BF1C37BD4680BC704700BF004006407A
:1009300000127A00445200000486FF1F80B483B086
:1009400000AF4FF0E023D3F80C3D7B607B689BB297
:100950007B607B6843F0BF6343F400337B607B685C
:1009600043F004037B604FF0E0227B68C2F80C3D4B
:1009700000BF0C37BD4680BC704700BF80B48FB04D
:1009800000AF394B3B63394B3B62394B7B61394B91
:10099000FB62394BFB61394B3B61394BBB62394BD5
:1009A000FB60394B7B62394BBB61394BBB6009E063
:1009B0003B6A1A783B6B1A703B6B01333B633B6AB3
:1009C00001333B627A693B6A9A42F1D109E0FB69E3
:1009D0001A78FB6A1A70FB6A0133FB62FB69013308
:1009E000FB613A69FB699A42F1D105E0BB6A0022DA
:1009F0001A70BB6A0133BB62FA68BB6A9A42F5D1CE
:100A000009E0BB691A787B6A1A70BB690133BB6164
:100A10007B6A01337B62BA68BB699A42F1D10023D9
:100A2000FB711C4A1C4B9A4216D000237B630AE0E0
:100A3000194A7B6B52F8232016497B6B41F823201F
:100A40007B6B01337B63154B9B087A6B9A42EFD328
:100A5000134B104A1A6002E0114B0F4A1A6000BF94
:100A60003C37BD4680BC70470084FF1F9454000093
:100A70003C570000A886FF1F3C5700003C57000071
:100A80000000002028000020000000203C5700004B
:100A90003C5700000080FF1F000000000004000021
:100AA00008ED00E080B483B000AF78607B681B691C
:100AB0001B0903F0030318460C37BD4680BC704782
:100AC00080B487B000AFF8607B600B46FB721346C2
:100AD000BB72FB681B697B617B6923F03F037B6111
:100AE000FB7A002B01D0012300E000237A69134335
:100AF0007B61BB7A002B01D0022300E000237A69DE
:100B000013437B617B689B0003F00C037A691343FA
:100B10007B613B6A1B0103F030037A6913437B61FD
:100B2000FB687A691A6100BF1C37BD4680BC7047FC
:100B300080B485B000AF78600B46FB707B681B6C9F
:100B4000FB60FB6823F01003FB60FB78002B01D0F7
:100B5000102300E00023FA681343FB607B68FA6807
:100B60001A6400BF1437BD4680BC704780B485B09E
:100B700000AF78607B681B6CFB60FB681B0903F0AF
:100B80000103FB60FB68002B14BF01230023DBB2D1
:100B900018461437BD4680BC704780B485B000AF9E
:100BA00078600B46FB707B681B6CFB60FB6823F076
:100BB0000803FB60FB78002B01D0082300E0002332
:100BC000FA681343FB607B68FA681A6400BF143745
:100BD000BD4680BC704780B485B000AF78607B684C
:100BE0001B6CFB60FB68DB0803F00103FB60FB6828
:100BF000002B14BF01230023DBB218461437BD4677
:100C000080BC704780B485B000AF78600B46FB7045
:100C10007B681B6CFB60FB6823F00403FB60FB78C4
:100C2000002B01D0042300E00023FA681343FB608B
:100C30007B68FA681A6400BF1437BD4680BC7047F1
:100C400080B485B000AF78607B681B6CFB60FB688C
:100C50009B0803F00103FB60FB68002B14BF01231A
:100C60000023DBB218461437BD4680BC704780B401
:100C700085B000AF78600B46FB707B681B6CFB6037
:100C8000FB6823F00203FB60FB78002B01D00223FA
:100C900000E00023FA681343FB607B68FA681A647B
:100CA00000BF1437BD4680BC704780B485B000AF2C
:100CB00078607B681B6CFB60FB685B0803F00103DA
:100CC000FB60FB68002B14BF01230023DBB2184636
:100CD0001437BD4680BC704780B485B000AF7860E3
:100CE0000B46FB707B681B6CFB60FB6823F0010309
:100CF000FB60FB78002B01D0012300E00023FA68A1
:100D00001343FB607B68FA681A6400BF1437BD4662
:100D100080BC704780B485B000AF78607B681B6C86
:100D2000FB60FB6803F00103FB60FB68002B14BF52
:100D300001230023DBB218461437BD4680BC704740
:100D400080B483B000AF78607B68DB681B0E03F073
:100D5000030318460C37BD4680BC704780B483B08F
:100D600000AF78607B68DB689B0E03F003031846D6
:100D70000C37BD4680BC704780B483B000AF78604C
:100D80007B68DB681B0F03F0030318460C37BD4676
:100D900080BC704780B483B000AF78607B68DB684C
:100DA0009B0F03F0030318460C37BD4680BC704709
:100DB00080B483B000AF78607B681B6903F00203E6
:100DC000002B14BF01230023DBB218460C37BD46AD
:100DD00080BC704780B483B000AF78607B681B69CB
:100DE00003F00103002B14BF01230023DBB21846DC
:100DF0000C37BD4680BC704780B483B000AF7860CC
:100E00007B681B699B0803F0030318460C37BD463B
:100E100080BC704780B483B000AF78607B685B684B
:100E200003F40063002B14BF01230023DBB2184638
:100E30000C37BD4680BC704780B483B000AF78608B
:100E40007B685B681B0A03F0070318460C37BD4636
:100E500080BC704780B483B000AF78607B685B680B
:100E60001B0903F00F0318460C37BD4680BC7047C2
:100E700080B487B000AFF8600B467A60FB72FB6805
:100E8000DB687B61FB7A032B38D801A252F823F090
:100E9000A10E0000B90E0000D10E0000E90E000006
:100EA0007B6923F040737B617B681B0603F0407312
:100EB0007A6913437B6122E07B6923F040637B61A5
:100EC0007B689B0603F040637A6913437B6116E0FD
:100ED0007B6923F040537B617B681B0703F0405321
:100EE0007A6913437B610AE07B6923F040437B61AD
:100EF0007B689B077A6913437B6100E000BFFB6856
:100F00007A69DA6000BF1C37BD4680BC704780B488
:100F100087B000AFF8607A603B600B46FB72FB68FD
:100F20005B6823F40062FB685A60FB685B687B6166
:100F30007B6923F47F637B61FB7A002B02D04FF443
:100F4000006300E000237A6913437B617B681B0127
:100F5000DBB27A6913437B613B681B0203F4E063F5
:100F60007A6913437B61FB687A695A6000BF1C375A
:100F7000BD4680BC704780B485B000AF78603960F2
:100F80007B685B68FB60FB6823F48053FB603B6815
:100F90001B0303F48053FA681343FB607B68FA6811
:100FA0005A6000BF1437BD4680BC704780B483B020
:100FB00000AF78607B689B6E7B6800229A6600BFFA
:100FC0000C37BD4680BC704780B485B000AFF86078
:100FD0007A603B600B46FB72FB7A002B02D04FF02D
:100FE000805200E000227B685B0003F00E031A438E
:100FF0003B6803F001031A43FB689A6600BF14378D
:10100000BD4680BC704780B483B000AF78607B6819
:101010001B6A1B0E03F00F0318460C37BD4680BC3D
:10102000704780B483B000AF78607B681B691B0E8B
:1010300003F00F0318460C37BD4680BC704780B4E0
:1010400083B000AF78607B681B691B0C03F00F0353
:1010500018460C37BD4680BC704780B483B000AFE3
:1010600078607B681B691B0903F00F0318460C3777
:10107000BD4680BC704780B483B000AF78607B68A9
:101080001B6903F00F0318460C37BD4680BC704740
:1010900080B487B000AFF860B9607A603B60BB682D
:1010A0001B0603F070627B681B0403F470231A4371
:1010B0003B681B01DBB21A433B6A03F00F03134387
:1010C0007B61FB687A695A6100BF1C37BD4680BCF2
:1010D000704780B487B000AFF860B9607A603B6059
:1010E000BB681B0603F070627B681B0403F470236B
:1010F0001A433B681B01DBB21A433B6A03F00F0340
:1011000013437B61FB687A699A6100BF1C37BD4657
:1011100080BC704780B487B000AFF860B9607A6077
:101120003B60BB681B0603F070627B681B0403F422
:1011300070231A433B681B01DBB21A433B6A03F07E
:101140000F0313437B61FB687A69DA6100BF1C37C8
:10115000BD4680BC704780B483B000AF78607B68C8
:10116000D3F8043303F0070318460C37BD4680BCA0
:10117000704780B483B000AF78607B68D3F80433E5
:101180001B0A03F0070318460C37BD4680BC7047A6
:1011900080B487B000AFF860B9607A60BB6803F0D4
:1011A00007027B681B0203F4E06313437B61FB6867
:1011B0007A69C3F8042300BF1C37BD4680BC704762
:1011C00080B483B000AF78607B68D3F8043203F05A
:1011D000070318460C37BD4680BC704780B483B007
:1011E00000AF78607B68D3F804321B0A03F0070372
:1011F00018460C37BD4680BC704780B487B000AF3E
:10120000F860B9607A60BB6803F007027B681B0274
:1012100003F4E06313437B61FB687A69C3F804223B
:1012200000BF1C37BD4680BC704780B483B000AFA0
:1012300078607B68D3F8043103F0070318460C3755
:10124000BD4680BC704780B483B000AF78607B68D7
:10125000D3F804311B0A03F0070318460C37BD46C8
:1012600080BC704780B487B000AFF860B9607A6026
:10127000BB6803F007027B681B0203F4E0631343BF
:101280007B61FB687A69C3F8042100BF1C37BD4647
:1012900080BC704780B483B000AF78607B68D3F8BF
:1012A000043603F0070318460C37BD4680BC704770
:1012B00080B483B000AF78607B68D3F804361B0A33
:1012C00003F0070318460C37BD4680BC704780B456
:1012D00087B000AFF860B9607A60BB6803F00702BE
:1012E0007B681B0203F4E06313437B61FB687A694C
:1012F000C3F8042600BF1C37BD4680BC704780B4CD
:1013000085B000AF786039607B681B6AFB60FB6862
:1013100023F07063FB603B681B0603F07063FA68A0
:101320001343FB607B68FA681A6200BF1437BD463E
:1013300080BC704780B485B000AF78607B68D3F81C
:101340000032FB60FB685B0E03F00103FB60FB688F
:10135000002B14BF01230023DBB218461437BD460F
:1013600080BC704780B483B000AF78607B68D3F8EE
:10137000003203F08073002B14BF01230023DBB283
:1013800018460C37BD4680BC704780B483B000AFB0
:1013900078607B68D3F8083203F0010318460C37F5
:1013A000BD4680BC704780B483B000AF78607B6876
:1013B000D3F8003223F400027B68C3F8002200BF98
:1013C0000C37BD4680BC704780B483B000AF7860F6
:1013D0007B680022C3F8002200BF0C37BD4680BCEA
:1013E000704780B483B000AF78600B46FB70FB7829
:1013F00003F001027B68C3F8082200BF0C37BD462A
:1014000080BC704780B485B000AF78600846114654
:101410001A460346FB700B46BB7013467B70FB7885
:10142000002B01D0032200E00122BB78002B01D069
:10143000042300E0002313437A78002A02D04FF4FB
:10144000000200E000221343FB607B68FA68C3F8E7
:10145000002200BF1437BD4680BC704780B485B001
:1014600000AF78607B68D3F80033FB60FB685B0EED
:1014700003F00103FB60FB68002B14BF0123002372
:10148000DBB218461437BD4680BC704780B483B0C9
:1014900000AF78607B68D3F8003303F08073002BD3
:1014A00014BF01230023DBB218460C37BD4680BCB5
:1014B000704780B483B000AF78607B68D3F808339E
:1014C00003F0030318460C37BD4680BC704780B458
:1014D00083B000AF78607B68D3F8003323F4000258
:1014E0007B68C3F8002300BF0C37BD4680BC704743
:1014F00080B483B000AF78607B684FF08062C3F83F
:10150000002300BF0C37BD4680BC704780B483B059
:1015100000AF78600B46FB70FB7803F003027B683A
:10152000C3F8082300BF0C37BD4680BC704780B4A9
:1015300085B000AF78600B46FB701346BB70FB783C
:10154000002B01D0012200E00922BB78002B02D041
:101550004FF4000300E000231343FB607B68FA684C
:10156000C3F8002300BF1437BD4680BC704780B469
:1015700085B000AF78607B68D3F80031FB60FB6812
:101580005B0E03F00103FB60FB68002B14BF01231B
:101590000023DBB218461437BD4680BC704780B4C8
:1015A00083B000AF78607B68D3F8003103F08073BC
:1015B000002B14BF01230023DBB218460C37BD46B5
:1015C00080BC704780B483B000AF78607B68D3F88C
:1015D000003123F400027B68C3F8002100BF0C3700
:1015E000BD4680BC704780B483B000AF78607B6834
:1015F0004FF08062C3F8002100BF0C37BD4680BCAD
:10160000704780B485B000AFF860B9607A603B6025
:10161000BB681B0103F030027B68DB0003F00803AA
:101620001A433B689B0003F004031A43FB68C3F8AA
:10163000082100BF1437BD4680BC704780B485B018
:1016400000AF7860084611461A460346FB700B4609
:10165000BB7013467B70FB78002B02D04FF0011259
:1016600000E00122BB78002B02D04FF4003300E0F1
:10167000002313437A78002A02D04FF4000200E0DE
:1016800000221343FB607B68FA68C3F8002100BFA7
:101690001437BD4680BC704780B485B000AF786019
:1016A0007B68D3F80036FB60FB685B0E03F0010338
:1016B000FB60FB68002B14BF01230023DBB218463C
:1016C0001437BD4680BC704780B483B000AF7860EB
:1016D0007B68D3F8003603F08073002B14BF01231E
:1016E0000023DBB218460C37BD4680BC704780B47F
:1016F00083B000AF78607B68D3F808361B0A03F02C
:10170000070318460C37BD4680BC704780B483B0D1
:1017100000AF78607B68D3F808361B0C03F01F031A
:1017200018460C37BD4680BC704780B483B000AF0C
:1017300078607B68D3F8003623F400027B68C3F836
:10174000002600BF0C37BD4680BC704780B483B014
:1017500000AF78607B684FF08062C3F8002600BF5E
:101760000C37BD4680BC704780B483B000AF786052
:101770000B46FB701346BB70FB781B0203F4E06260
:10178000BB781B0403F4F8131A437B68C3F80826DC
:1017900000BF0C37BD4680BC704780B485B000AF39
:1017A0007860084611461A460346FB700B46BB702C
:1017B00013467B70FB78002B02D04FF0011200E043
:1017C0000122BB78002B02D04FF4003300E000234D
:1017D00013437A78002A02D04FF4000200E000227E
:1017E0001343FB607B68FA68C3F8002600BF143718
:1017F000BD4680BC704780B487B000AFF8607B60A6
:101800000B46FB721346BB727B681B0603F0E0625B
:101810007B6ADB0003F008031A433B6A03F007030B
:101820001343BA7A002A02D04FF0804200E000222F
:1018300013437B61FB7A064A32F813301946FB6882
:101840007A6943F8212000BF1C37BD4680BC704731
:101850004852000080B483B000AF78600B46FB7044
:101860001346BB70BB78002B12D0FB78144A32F8B9
:1018700013301A467B6853F82230FA78104931F851
:101880001220114643F080427B6843F8212011E08A
:10189000FB780B4A32F813301A467B6853F8223033
:1018A000FA78074931F81220114623F080427B680C
:1018B00043F8212000BF0C37BD4680BC704700BFF5
:1018C0004852000080B485B000AF78600B46FB70D2
:1018D000FB780C4A32F813301A467B6853F82230F2
:1018E000FB60FB689B0F03F00103FB60FB68002BB0
:1018F00014BF01230023DBB218461437BD4680BC59
:10190000704700BF4852000080B483B000AF7860D9
:101910000B46FB70FB78074A32F813301A467B6897
:1019200053F822301B0E03F0070318460C37BD4650
:1019300080BC70474852000080B483B000AF78602C
:101940000B46FB70FB78074A32F813301A467B6867
:1019500053F82230DB0803F0010318460C37BD466C
:1019600080BC70474852000080B483B000AF7860FC
:101970000B46FB70FB78074A32F813301A467B6837
:1019800053F8223003F0070318460C37BD4680BCDD
:10199000704700BF4852000080B485B000AF786047
:1019A0000B46FB707B689B78FB73FB7B03F07F032C
:1019B000FB73FB7883F00103DBB2DB01DAB2FB7B64
:1019C0001343FB737B68FA7B9A7000BF1437BD46E4
:1019D00080BC704780B485B000AF78607B689B782E
:1019E000FB73FB7BDB09FB73FB7B002B0CBF012331
:1019F0000023DBB218461437BD4680BC704780B464
:101A000085B000AF78600B46FB70FB78FB7397F9ED
:101A10000F30002B06DA2023BB73FA7BBB7B134409
:101A2000DBB2FB73FB7B7B737B681B793B733B7B7C
:101A300023F01F033B7397F90D3003F01F035AB2D5
:101A400097F90C3013435BB23B737B683A7B1A7196
:101A500000BF1437BD4680BC704780B483B000AF70
:101A600078607B685B69DBB218460C37BD4680BC8A
:101A7000704780B5A6B000AF78607B68C7F8943037
:101A80007B68002B08D107F10803184600F0A2F983
:101A900007F10803C7F89430D7F89430184600F0DF
:101AA0001FF80346A7F89230B7F89230002B11D1F7
:101AB000D7F894304433184600F0CAF8D7F8943079
:101AC0007C33184600F068F8D7F894308433184611
:101AD00000F064F9B7F8923018469837BD4680BDDB
:101AE00080B584B000AF78600023FB817B68002B59
:101AF00049D001F047F90346FB81FB89002B04D153
:101B0000786801F073F90346FB81FB89002B3AD119
:101B10001F4B00221A607B6893F83030002B03D0F3
:101B20007B68DB6A1A4A13607B6893F83530002BB8
:101B300006D07B6893F8343019461648FFF7DFFB70
:101B40007B6893F84330002B1DD07B6836331946F1
:101B5000012001F0C3FA0346FB81FB89002B07D16A
:101B60007B683A331946022001F0B8FA0346FB813C
:101B7000FB89002B07D17B683E331946032001F017
:101B8000ADFA0346FB81FB8918461037BD4680BD80
:101B90001C00002000400640F0B587B002AF78601E
:101BA0007B68002B4DD07B685B68002B49D00023FD
:101BB000FB6041E07B685968FA6813469B00134458
:101BC0000B441B78002219462048FFF743FE7B6830
:101BD0005968FA6813469B0013440B4418787B68D5
:101BE0005968FA6813469B0013440B445C787B6881
:101BF0005968FA6813469B0013440B449B781E46B1
:101C00007B685968FA6813469B0013440B441B79A0
:101C10001D467B685968FA6813469B0013440B44C1
:101C2000DB78019300953346224601460748FFF7CB
:101C3000E2FDFB680133FB607B681B68FA689A422F
:101C4000B8D300BF1437BD46F0BD00BF00500640FA
:101C500080B586B002AF78607B681B78002B09D016
:101C60007B6859787B689B781A467B68DB784948A3
:101C7000FFF74DF97B681B79002B0DD07B68197A33
:101C80007B68DA797B689B7918467B685B7900937F
:101C900003464048FEF714FF7B6893F82C30002B76
:101CA00022D07B6893F82D3019463A48FFF714F894
:101CB0007B6893F82E3019463648FEF7D8FF7B68CC
:101CC00093F82F3019463348FEF79CFF7B6893F852
:101CD000303019462F48FEF760FF7B6893F83130AB
:101CE00019462C48FEF724FF7B681B7B002B26D06F
:101CF0000023FB730CE0FB7BFA7B796802339B00CB
:101D00000B449B68244941F82230FB7B0133FB7371
:101D1000FB7B022BEFD90023FB730DE0FB7B7A6882
:101D200006339B0013445A68FB7B19461948FFF79A
:101D30009FF8FB7B0133FB73FB7B032BEED97B68A6
:101D400093F83230002B21D01248FFF72FF97B682F
:101D500093F8343019460F48FFF70DF9002300229D
:101D600000210C48FFF730F97B6893F83330002BE3
:101D70000CD07B6893F833107B6893F835301A46A3
:101D80007B6893F836300348FFF71EF900BF103721
:101D9000BD4680BD008004401000002080B582B0A8
:101DA00000AF78607B681B78002B0CD07B685B7879
:101DB00019460748FFF7F0FD7B6893F90230194692
:101DC0000348FFF71CFE00BF0837BD4680BD00BFBB
:101DD00000D0074080B485B000AF78600023FB607E
:101DE0007B680122DA707B6800221A717B6801220D
:101DF0005A717B6800229A717B6801221A707B6895
:101E000001225A707B6801229A707B6801229A73C2
:101E10007B6801221A737B6800225A737B68002258
:101E2000DA717B6801221A727B6801225A727B6820
:101E3000012283F830207B680022DA627B6801226D
:101E40005A777B687D4A1A617B6800221A757B6825
:101E500000221A777B6801225A757B6800229A75E6
:101E60007B680222DA757B6801221A767B68012280
:101E70005A767B68012283F828207B68002283F849
:101E800020207B68002283F827207B68002283F8CB
:101E900021207B680C2283F822207B68002283F8B3
:101EA00023207B68012283F824207B68012283F8A9
:101EB00025207B68012283F835207B68032283F884
:101EC00034207B68012283F843207B68032283F857
:101ED00039207B68002283F838207B68012283F850
:101EE00037207B68012283F836207B68022283F842
:101EF0003D207B68012283F83C207B68002283F828
:101F00003B207B68032283F83A207B68062283F813
:101F100041207B68002283F840207B68012283F8FF
:101F20003F207B68032283F83E207B68444AC3F845
:101F300080207B682022DA677B68012283F84420B6
:101F40007B68002283F845207B68002283F84620C6
:101F50007B68002283F847207B68012283F84820B1
:101F60007B68012283F84C207B68012283F84B2098
:101F70007B68002283F84A207B68002283F849208E
:101F80007B68012283F870207B68012283F871202E
:101F90007B68012283F872207B68012283F873201A
:101FA0007B68012283F874207B68012283F8752006
:101FB0007B68012283F87B207B68012283F8502014
:101FC0007B6800225A657B6800229A657B68002244
:101FD000DA650023FB6009E07A68FB6816339B0032
:101FE000134400229A60FB680133FB60FB68032BFB
:101FF000F2D97B68012283F876207B68012283F87E
:1020000077207B68002283F878207B68002283F8A1
:1020100079207B68002283F87A207B68012283F88C
:1020200084207B68012283F885207B68002283F866
:10203000862000BF1437BD4680BC704700127A006E
:102040000886FF1F80B584B000AF03463960FB717E
:102050000023FB810023BB60FB79112B00F28380FE
:1020600001A252F823F000BFB1200000BB20000005
:10207000C5200000CF200000D7200000DF20000096
:10208000E7200000EF200000F7200000FF20000004
:1020900007210000132100001F2100002B21000058
:1020A00037210000432100004F2100005B21000088
:1020B000002000F081FFB86058E0012000F07CFFB4
:1020C000B86053E0022000F077FFB8604EE000F007
:1020D00081FBB8604AE001F0C5F9B86046E001F064
:1020E000DDF9B86042E001F0A5F9B8603EE001F02A
:1020F000F3F9B8603AE0234B1B68BB6036E000F0B0
:10210000E1FBB86032E00021042001F005F9B8607D
:102110002CE00121042001F0FFF8B86026E0002146
:10212000052001F0F9F8B86020E00121052001F058
:10213000F3F8B8601AE00021062001F0EDF8B8606D
:1021400014E00121062001F0E7F8B8600EE000215C
:10215000072001F0E1F8B86008E00121072001F054
:10216000DBF8B86002E00423FB8100BF3B68002B72
:1021700002D03B68BA681A60FB8918461037BD4622
:1021800080BD00BF1C00002080B586B000AF0346B4
:102190003960FB710023FB8200233B61FB79153B17
:1021A0000E2B00F2E18001A252F823F0E921000099
:1021B00005220000212200003D22000059220000DB
:1021C00061220000692200007F220000AF2200008F
:1021D000D3220000E7220000012300001B2300009F
:1021E000352300004F2300007E48FEF7A9FDF8606C
:1021F000FB68022B00F2BB807B4AFB6852F823305D
:102200003B61B4E07748FEF7A9FDF860FB68022B5C
:1022100000F2AF80744AFB6852F823303B61A8E0BB
:102220007048FEF7A9FDF860FB68022B00F2A3805E
:102230006D4AFB6852F823303B619CE06948FEF729
:10224000A9FDF860FB68022B00F29780664AFB68E4
:1022500052F823303B6190E000F0BCFA38619FE017
:1022600000F06AFB38619BE06048FFF7B3FB034670
:10227000002B00F0848001F061F938617FE05B4859
:10228000FFF7A8FB0346002B7BD05648FEF790FDD6
:102290000346002B08D05348FEF79CFD0346002B55
:1022A00002D04FF47A7300E000233B6169E04F48AD
:1022B000FFF790FB0346002B65D04A48FEF778FDF8
:1022C0000346002B02D04FF4FA4300E000233B61A9
:1022D00059E04648FFF77EFB0346002B55D04FF4EC
:1022E000FA333B6151E03F48FEF740FC034683F080
:1022F0000103DBB2002B4AD04FF48073FB8246E02F
:102300003848FEF768FC034683F00103DBB2002B7C
:102310003FD04FF48073FB823BE03248FEF790FCE5
:10232000034683F00103DBB2002B34D04FF48073FB
:10233000FB8230E02B48FEF7B8FC034683F0010334
:10234000DBB2002B29D04FF48073FB8225E02548B7
:10235000FEF7E0FC034683F00103DBB2002B1ED046
:102360004FF48073FB821AE00423FB8218E000BF65
:1023700016E000BF14E000BF12E000BF10E000BF95
:102380000EE000BF0CE000BF0AE000BF08E000BFA5
:1023900006E000BF04E000BF02E000BF00E000BFB5
:1023A000FB791E2B09D9FB79232B06D8FB8A002B3E
:1023B00003D1012000F000FE38613B69002B05D1FC
:1023C000FB8A042B02D04FF48073FB823B68002B06
:1023D00002D03B683A691A60FB8A18461837BD4636
:1023E00080BD00BF008004401000002000D00740E6
:1023F00080B584B000AF0346FB710023FB81FB79FD
:10240000242B0ED9FB79332B0BD0FB79392B08D039
:10241000FB793B2B05D0FB79402B02D0FB794D2B70
:1024200002D10423FB8110E0FB7919460948FFF72C
:1024300049FA034683F00103DBB2002B03D04FF4CB
:102440008073FB8101E00023FB81FB891846103774
:10245000BD4680BD0050064080B586B000AF034643
:102460003960FB710023FB8200233B610023FB608A
:10247000FB791846FFF7BCFF0346FB82FB8A002B63
:1024800066D1FB79384AD35C03F02003002B0CD0D3
:10249000012000F091FDF860FB68002B02D14FF4A1
:1024A000807300E00023FB8225E0FB792E4AD35C99
:1024B00003F04003002B0CD0002000F07DFDF860FD
:1024C000FB68002B02D14FF4807300E00023FB82F5
:1024D00011E0FB79244AD35C5BB2002B0BDA0220BB
:1024E00000F06AFDF860FB68002B02D14FF48073A6
:1024F00000E00023FB82FB8A002B29D1FB791A4ADA
:10250000D35C03F01803002B20D0FB79164AD35C70
:1025100003F00803002B05D0FB790021184600F0DA
:102520008DF83861FB79104AD35C03F01003002B5F
:1025300005D0FB790121184600F080F838613B692D
:10254000002B05D14FF48073FB8201E0FB683B61F7
:102550003B68002B02D03B683A691A60FB8A184638
:102560001837BD4680BD00BFE852000080B584B07A
:1025700000AF03463960FB71FB79112B07D8FB795B
:1025800039681846FFF75EFD0346FB8117E0FB79CB
:10259000232B07D8FB7939681846FFF7F5FD03466A
:1025A000FB810CE0FB794D2B07D8FB793968184685
:1025B000FFF752FF0346FB8101E00423FB81FB8907
:1025C00018461037BD4680BD80B584B000AF0346C5
:1025D0003960FB710023FB81FB793C3B032B27D83F
:1025E00001A252F823F000BFF925000007260000E1
:1025F000152600002326000039681520FFF7C4FDCA
:102600000346FB8115E039681620FFF7BDFD034640
:10261000FB810EE039681720FFF7B6FD0346FB810A
:1026200007E039681820FFF7AFFD0346FB8100E0A3
:1026300000BFFB8918461037BD4680BD80B586B007
:1026400000AF03460A46FB711346BB710023FB60D3
:10265000FB7919463448FFF76FF93861FB79194661
:102660003148FFF781F978613A697B699A4255D818
:10267000FB7919462C48FFF725F90346002B4DD06E
:10268000FB7919462848FFF73FF90346013B052B24
:102690002ED801A252F823F0B1260000C126000076
:1026A000D1260000F1260000F1260000E1260000FE
:1026B000BB791946062000F02FFE0346FB6021E09F
:1026C000BB791946042000F027FE0346FB6019E0A1
:1026D000BB791946052000F01FFE0346FB6011E0A0
:1026E000BB791946072000F017FE0346FB6009E09E
:1026F00007F10C02FB7911461846FFF765FF00232E
:102700007B6100BFFA687B690133B2FBF3F3FB60C6
:102710003B690133FA6802FB03F3FB60FB68184670
:102720001837BD4680BD00BF0050064080B582B05E
:1027300000AF0F48FFF791F90346802B06D0802B9E
:102740000DD8012B05D0042B06D008E00323FB7124
:1027500008E00123FB7105E00223FB7102E0042382
:10276000FB7100BFFB7918460837BD4680BD00BF2E
:1027700000E0074080B586B000AF78600023FB82A0
:10278000FFF7D4FF0346FB73FB7B7968184600F024
:10279000A5FC0346FB82FB8A002B14D10A233B6174
:1027A0003B69013B3B610A48FEF73BFC02467B6804
:1027B000DB789A4202D03B69002BF1D13B69002BB8
:1027C00001D10323FB82FB8A18461837BD4680BD22
:1027D0000040064080B582B000AF3948FEF71AFBD2
:1027E0000346002B65D03648FEF734FB03460E2B1C
:1027F00052D801A252F823F0352800009928000091
:102800003D28000099280000492800009928000070
:1028100055280000612800006B2800007728000080
:1028200081280000992800008928000099280000CC
:102830009128000000F046F8786030E00121062081
:1028400000F06AFD78602AE00121042000F064FDB8
:10285000786024E00121052000F05EFD78601EE034
:10286000002000F0A9FB786019E00121072000F0AA
:1028700053FD786013E0012000F09EFB78600EE0CD
:102880004FF4FA337B600AE000F058FE786006E00F
:1028900000F052F8786002E000237B6000BF084837
:1028A000FEF7CAFA034601337A68B2FBF3F37B60A2
:1028B00001E000237B607B6818460837BD4680BD79
:1028C0000080044080B582B000AF1A48FEF79BFB41
:1028D0000346062B25D801A252F823F0F928000060
:1028E000032900000B290000132900002329000000
:1028F000232900001B290000022000F05DFB786006
:1029000012E000F097FD78600EE000F0ABFD78601B
:102910000AE000F0C3FD786006E000F0DDFD7860BD
:1029200002E000237B6000BF7B6818460837BD4685
:1029300080BD00BF0040064080B582B000AF1A489D
:10294000FEF7B0F80346032B26D801A252F823F075
:10295000612900006D290000852900008D290000F3
:102960000021062000F0D8FC786018E00E48FEF741
:102970001FFA0346002B02D04FF4FA4300E0002375
:102980007B600CE0094B1B687B6008E000210520A0
:1029900000F0C2FC786002E000237B6000BF7B682F
:1029A00018460837BD4680BD008004401C0000204A
:1029B00080B588B000AF03463960FB710023FB830C
:1029C0003B68002B0FD100233B7401237B74002351
:1029D000BB7401237B730123BB7301233B7307F19A
:1029E0000C03BB6101E03B68BB612248FEF7A2FC1F
:1029F0000346002B02D00223FB8305E01D48FEF7AF
:102A0000D2FC1C48FEF7E0FCFB79002B2DD0FB8BA1
:102A1000002B2AD1BB695B781946BB699B781A46A3
:102A20001448FEF7EAFBBB691B7819461148FEF70C
:102A3000D8FCBB691979BB695A79BB699B790D4888
:102A4000FEF7E0FC64237B6102E07B69013B7B6174
:102A500000F008FD0346002B02D17B69002BF4D166
:102A60007B69002B01D10323FB83FB8B18462037A6
:102A7000BD4680BD0040064080B588B000AF03462B
:102A80003960FB710023FB833B68002B0DD10123D0
:102A90007B740023BB7401237B730123BB7300236E
:102AA0003B7307F10C03BB6101E03B68BB6122484B
:102AB000FEF7D4FC0346002B02D00223FB8305E083
:102AC0001D48FEF704FD1C48FEF712FDFB79002BA4
:102AD0002CD0FB8B002B29D1BB695B781946BB69D5
:102AE0009B781A461448FEF753FBBB691B781946BE
:102AF0001148FEF70BFDBB695979BB699B791A46F2
:102B00000D48FEF714FD64237B6102E07B69013B05
:102B10007B6100F0C3FC0346002B02D17B69002BD4
:102B2000F4D17B69002B01D10323FB83FB8B184677
:102B30002037BD4680BD00BF0040064080B58AB04A
:102B400000AF03463960FB710023FB843B68002B18
:102B500013D100233B7400233B7601233B750123F3
:102B60007B7501237B740023BB740223FB743A4BF7
:102B7000FB6007F10C033B6201E03B683B623748B6
:102B8000FEF7F5FC0346002B02D00223FB8408E08D
:102B90003248FEF717FD3148FEF725FD304B002285
:102BA0001A60FB79002B51D0FB8C002B4ED13B6A75
:102BB0001B7A19463B6A5B7A1A462848FEF752FB95
:102BC0003B6ADB7919463B6A9B791A463B6A5B791B
:102BD0002248FEF716FD3B6A1B79022B16D0022B0A
:102BE0001CDC002B02D0012B08D017E03B6A1B7BBA
:102BF000002200211948FEF721FD10E03B6A1B7BF3
:102C0000002201211548FEF719FD08E03B6A1B7BF5
:102C1000012201211148FEF711FD00E000BF3B6ACF
:102C20001B680F4A13600F4BFB6102E0FB69013B1D
:102C3000FB6100F0FFFB0346002B02D1FB69002B78
:102C4000F4D1FB69002B01D10323FB84FB8C1846D4
:102C50002837BD4680BD00BF00127A000040064004
:102C60002000002088E7300080B58AB000AF03461E
:102C70003960FB710023FB843B68002B11D10023DA
:102C80003B730023FB7401233B7401237B740023FB
:102C90007B730723BB730023FB7307F10C033B62B9
:102CA00001E03B683B623648FEF7F6FC0346002B2A
:102CB00002D00223FB8405E03148FEF736FD3048A0
:102CC000FEF744FDFB79002B55D0FB8C002B52D135
:102CD00000F0B0FBB8613B6A5B780133BA69B2FBC4
:102CE000F3F3BB613B6A1B7919463B6A5B791A4671
:102CF0002348FEF7ECFA3B6A59783B6A9B781A4600
:102D00001F48FEF731FD3B6A1B78022B16D0022BC1
:102D10001CDC002B02D0012B08D017E03B6ADB79CA
:102D2000002200211648FEF738FD10E03B6ADB79EF
:102D3000002201211248FEF730FD08E03B6ADB79F2
:102D4000012201210E48FEF728FD00E000BF4FF4EC
:102D50007A73FB6102E0FB69013BFB6100F0BCFBA5
:102D60000346002B02D1FB69002BF4D1FB69002B39
:102D700001D10323FB84FB8C18462837BD4680BD58
:102D80000040064080B582B000AF0023FB801548AC
:102D9000FEF747F90346032B1ED000F07FFB0346E6
:102DA000002B05D100210120FFF766FE0346FB80C2
:102DB000FB88002B10D10323FB700B4BDB78BB701F
:102DC000094B1B797B70084B5B793B703B4618467F
:102DD000FFF7D0FC0346FB80FB8818460837BD464A
:102DE00080BD00BF004006403853000080B586B06B
:102DF00000AF78600023FB827B68DB787A6811463D
:102E00001846FFF7D5FD0346FB82FB8A002B17D13E
:102E10007B685A7F7B68103319461046FFF78EFE99
:102E20000346FB82FB8A002B0AD17B6893F828209B
:102E30007B68203319461046FFF716FF0346FB82D6
:102E4000FFF774FC0346032B0ED0032B10DC012B81
:102E500002D0022B04D00BE07B6836333B610AE0E2
:102E60007B683A333B6106E07B683E333B6102E0BE
:102E700000233B6100BFFB8A002B40F096803B693A
:102E8000DB78032B71D10123FB827B6893F8283018
:102E9000002B14D0FB8A012B11D10623FB73454B69
:102EA0005B7ABB73434B9B7A7B73424BDB7A3B73FE
:102EB00007F10C031846FFF75DFC0346FB827B68B5
:102EC0005B7F002B14D0FB8A012B11D10123FB73F4
:102ED000384B9B79BB73374BDB797B73354B1B7A54
:102EE0003B7307F10C031846FFF744FC0346FB82D3
:102EF0007B68DB78002B14D0FB8A012B11D10223D5
:102F0000FB732C4B1B78BB732A4B5B787B73294B71
:102F10009B783B7307F10C031846FFF72BFC034625
:102F2000FB82FB8A002B40D17B689A7B7B6807334E
:102F300019461046FFF7A0FD0346FB82FB8A002BD3
:102F400033D13B69DB78FB733B699B78BB733B698F
:102F50005B787B733B691B783B7307F10C03184666
:102F6000FFF708FC0346FB821FE03B69DB78FB733D
:102F70003B699B78BB733B695B787B733B691B78D0
:102F80003B7307F10C031846FFF7F4FB0346FB8283
:102F9000FB8A002B09D17B689A7B7B680733194633
:102FA0001046FFF769FD0346FB82FB8A1846183777
:102FB000BD4680BD4453000080B584B000AF0346D9
:102FC000FB712C48FEF72DF80346013B052B1FD85B
:102FD00001A252F823F000BFF12F0000F92F0000EA
:102FE00001300000113000001130000009300000F5
:102FF00000F020FAF8600EE000F034FAF8600AE021
:1030000000F04CFAF86006E000F066FAF86002E0C2
:103010000023FB6000BF1748FEF711F80346013399
:10302000FA68B2FBF3F3FB60FB79022B0FD0022BA3
:1030300017DC002B18D0012B13D10E48FEF70DF82A
:1030400003460133FA68B2FBF3F3FB600DE0094875
:10305000FEF711F803460133FA68B2FBF3F3FB60A5
:1030600003E00023FB6000E000BFFB681846103758
:10307000BD4680BD0040064080B584B000AF034629
:10308000FB710023FB60FB79013B052B1ED801A2DD
:1030900052F823F0AD300000B5300000BD30000024
:1030A000CD300000CD300000C530000000F0C2F986
:1030B000F8600EE000F0D6F9F8600AE000F0EEF9F2
:1030C000F86006E000F008FAF86002E00023FB6018
:1030D00000BFFB6818461037BD4680BD80B58AB07A
:1030E00002AF03463960FB710023FB830023BB6101
:1030F0003B689B7801337B613B689B7801333A687E
:103100005278013202FB03F33B613B689B78013349
:103110003A681278013202FB03F3FB603B68DB780C
:103120001846FFF7A9FFB861BB691B09BB61FB79B2
:10313000032B00F09A80032B00F3E080012B02D0D8
:10314000022B49D0DAE03B68DB7819466E4A0B4621
:103150005B000B449B0013441B681B097A6902FB4C
:1031600003F3BA699A4223D83B68DB781946664A6A
:103170000B465B000B449B00134404331B681B0984
:103180003A6902FB03F3BA699A4211D83B68DB78CB
:1031900019465D4A0B465B000B449B001344083301
:1031A0001B681B09FA6802FB03F3BA699A4202D949
:1031B0000123FB83A3E03B68DB7819463B689B78DF
:1031C0001A463B685B7818463B681B7800930346B9
:1031D0004E48FDF75DFF92E03B68DB7819464C4AAC
:1031E0000B465B000B449B0013441B681B097A6968
:1031F00002FB03F3BA699A4223D83B68DB7819468D
:10320000434A0B465B000B449B00134404331B688A
:103210001B093A6902FB03F3BA699A4211D83B6869
:10322000DB7819463A4A0B465B000B449B0013447B
:1032300008331B681B09FA6802FB03F3BA699A4258
:1032400002D90123FB835AE03B68DB7819463B68CF
:103250009B781A463B685B7818463B681B7800935E
:1032600003462A48FDF735FF49E03B68DB781946FD
:10327000284A0B465B000B449B0013441B681B0948
:103280007A6902FB03F3BA699A4223D83B68DB7878
:103290001946204A0B465B000B449B001344043341
:1032A0001B681B093A6902FB03F3BA699A4211D8F9
:1032B0003B68DB781946174A0B465B000B449B00C2
:1032C000134408331B681B09FA6802FB03F3BA694D
:1032D0009A4202D90123FB8311E03B68DB7819464F
:1032E0003B689B781A463B685B7818463B681B78BE
:1032F000009303460548FDF70DFF00E000BFFB8B80
:1033000018462037BD4680BD50530000004006409F
:10331000A4530000F853000080B584B000AF03460A
:103320000A46FB711346BB710023BB60BB79002BBF
:1033300002D0012B34D067E0FB79043B032B2BD860
:1033400001A252F823F000BF693300005933000096
:10335000793300008933000000F0A0F8F8603448A9
:10336000FDF7F9FEB8601AE000F07CF8F86030482C
:10337000FDF726FFB86012E000F05CF8F8602C481A
:10338000FDF753FFB8600AE000F0A6F8F86028489F
:10339000FDF780FFB86002E00023FB6000BF36E06D
:1033A000FB79043B032B2BD801A252F823F000BF7A
:1033B000D1330000C1330000E1330000F1330000DD
:1033C00000F06CF8F8601A48FDF7D3FEB8601AE018
:1033D00000F048F8F8601648FDF700FFB86012E00A
:1033E00000F028F8F8601248FDF72DFFB8600AE0F9
:1033F00000F072F8F8600E48FDF75AFFB86002E07E
:103400000023FB6000BF02E00023FB6000BFBB683D
:10341000002B06D0BB68013BFA6822FA03F3FB607D
:1034200001E00023FB60FB6818461037BD4680BDF5
:103430000040064080B582B000AF0848FEF7AFF804
:103440000346002B03D0064B1B687B6001E0002382
:103450007B607B6818460837BD4680BD004006404B
:103460002000002080B582B000AF00237B600948B7
:10347000FDF778FF0346002B07D00648FDF785FFD0
:103480000346002B01D0044B7B607B68184608374D
:10349000BD4680BD0040064000127A0080B582B073
:1034A00000AF0B48FDF7F2FF0346002B08D0084899
:1034B000FDF7FFFF0346074A52F823307B6001E027
:1034C00000237B607B6818460837BD4680BD00BF7F
:1034D000004006404C54000080B582B000AF164852
:1034E000FEF7F2F80346002B1ED0FFF7A3FF78602B
:1034F0007B68002B15D01048FEF7F9F8034601331E
:103500007A68B2FBF3F37B600B48FEF7FFF80346E3
:1035100003F110027B6802FB03F37B607B685B08AE
:103520007B607B683B6001E000233B603B681846A2
:103530000837BD4680BD00BF0040064080B582B060
:1035400000AF00237B601E48FDF756FC0346032BAB
:103550002FD801A252F823F0693500007135000020
:10356000773500008F3500004FF4FA337B6021E09F
:1035700000237B601EE01248FDF71AFC0346002B77
:1035800002D04FF4FA4300E000237B6012E00C48C5
:10359000FDF70EFC0346002B08D00948FDF71AFC86
:1035A0000346002B02D04FF47A7300E000237B60C7
:1035B00000E000BF7B6818460837BD4680BD00BFED
:1035C0000080044080B584B000AF0346FB71012346
:1035D000FB81FFF781FF0346002B17D0FB79062BF9
:1035E00014D0FB89012B11D10623FB72354B5B7A7A
:1035F000BB72344B9B7A7B72324BDB7A3B7207F1A6
:1036000008031846FFF7B6F80346FB81FFF746FFAD
:103610000346002B17D0FB79032B14D0FB89002B1A
:1036200011D00323FB72274BDB78BB72254B1B7930
:103630007B72244B5B793B7207F108031846FFF756
:1036400099F80346FB81FFF7F5FE0346002B17D0E0
:10365000FB79012B14D0FB89002B11D00123FB72C5
:10366000184B9B79BB72174BDB797B72154B1B7A1E
:103670003B7207F108031846FFF77CF80346FB810D
:10368000FFF7F0FE0346002B17D0FB79022B14D076
:10369000FB89002B11D00223FB720A4B1B78BB72F3
:1036A000084B5B787B72074B9B783B7207F10803F2
:1036B0001846FFF75FF80346FB81FB891846103771
:1036C000BD4680BD5054000080B582B000AF786028
:1036D0002148FDF7A6FC0346013B052B1ED801A29D
:1036E00052F823F0FD360000053700000D370000CA
:1036F0001D3700001D370000153700007B680122D0
:10370000DA700CE07B680222DA7008E07B68032242
:10371000DA7004E07B680622DA7000E000BF0E4831
:10372000FDF79BFC03460D4AD25C7B685A700A4841
:10373000FDF785FC0346094AD25C7B689A7006480F
:10374000FDF799FC0346054AD25C7B681A7000BFFE
:103750000837BD4680BD00BF004006405C540000F5
:1037600080B485B000AF0346FB80FB88202B47DC8C
:10377000002B5CDD013B1F2B59D801A252F823F02E
:1037800029380000233800002F3800001D380000C1
:103790002F3800002F3800002F38000017380000A5
:1037A0002F3800002F3800002F3800002F3800007D
:1037B0002F3800002F3800002F380000113800008B
:1037C0002F3800002F3800002F3800002F3800005D
:1037D0002F3800002F3800002F3800002F3800004D
:1037E0002F3800002F3800002F3800002F3800003D
:1037F0002F3800002F3800002F3800000B38000051
:10380000402B14D10723FB7314E00623FB7311E054
:103810000523FB730EE00423FB730BE00323FB7310
:1038200008E00223FB7305E00123FB7302E00023A1
:10383000FB7300BFFB7B18461437BD4680BC704746
:1038400080B582B000AF4F23FB71FFF70BFE03463C
:10385000002B02D00423FB7119E0FFF71FFE034683
:10386000002B02D00523FB7111E0FFF735FE034664
:10387000002B02D00723FB7109E0FFF7DBFD0346B5
:10388000002B02D00623FB7101E04F23FB71FB7973
:1038900018460837BD4680BD80B582B000AF0346EC
:1038A0000A46FB711346BB71FB791F3B042B2BD8D7
:1038B00001A252F823F000BFFD380000F1380000EB
:1038C000E5380000D9380000CD380000BB79194632
:1038D0001048FDF701FA18E0BB7919460D48FDF7CD
:1038E000C6F912E0BB7919460A48FDF78BF90CE0DE
:1038F000BB7919460748FDF750F906E0BB79194630
:103900000448FDF715F900E000BF00BF0837BD46C9
:1039100080BD00BF0080044080B58AB002AF03467E
:103920003960FB710023FB610023BB6100237B61D5
:103930003B68002B0DD101233B72FFF781FF03464B
:103940007B7201237B810123BB8107F108033B616B
:1039500001E03B683B61FB79314AD35C03F0010332
:10396000002B51D1FB792E4AD35C03F01803002BB6
:103970001CD03B695B78043B032B19D801A252F899
:1039800023F000BF953900009B390000A1390000E9
:10399000A73900000223FB610BE00323FB6108E071
:1039A0000123FB6105E00623FB6102E000BF00E0AC
:1039B00000BFFB791A4AD35C03F00403002B03D049
:1039C0003B699B88013BBB61FB79154AD35C03F0E3
:1039D0000203002B03D03B695B88013B7B61FB79D1
:1039E000002219460F48FDF735FF3B691B78002B75
:1039F00011D0F9797B690193BB690093FB690122BE
:103A00000848FDF7F8FE06E03B691A78FB79114695
:103A10001846FFF741FF00BF2037BD4680BD00BFFD
:103A2000E85200000050064080B485B000AF7860D6
:103A30007B68042B09D07B68042B0FD87B68012B93
:103A400006D07B68022B06D008E00323FB7308E056
:103A50000123FB7305E00223FB7302E00423FB73E5
:103A600000BFFB7B18461437BD4680BC704780B44E
:103A700085B000AF0346FB71FB79043B032B17D8DD
:103A800001A252F823F000BF993A00009F3A0000CB
:103A9000A53A0000AB3A00000223FB730BE00323BE
:103AA000FB7308E00123FB7305E00623FB7302E0D0
:103AB000FF23FB7300BFFB7B18461437BD4680BC59
:103AC000704780B584B000AF786039600023FB8117
:103AD000FEF72CFE03463B737B68002B02D13B7B39
:103AE0007B7306E07B681B681846FFF79DFF034663
:103AF0007B733B68002B4DD1FFF7D0FC0346002BB6
:103B00000BD00323FB723D4BDB78BB723B4B1B7925
:103B10007B723A4B5B793B7255E0FFF7DDFC034665
:103B2000002B0BD00623FB72344B5B7ABB72334BFA
:103B30009B7A7B72314BDB7A3B7244E0FFF77AFC75
:103B40000346002B0BD00123FB722C4B9B79BB72DD
:103B50002A4BDB797B72294B1B7A3B7233E0FFF7F0
:103B600081FC0346002B2ED00223FB727B7B022BB1
:103B700006D10123BB7200237B7203233B7222E038
:103B80001E4B1B78BB721D4B5B787B721B4B9B786B
:103B90003B7218E03B681B781846FFF768FF034646
:103BA000FB723B685B881A46154B9B5CBB723B689B
:103BB0009B881A46124B9B5C7B723B68DB881A46DB
:103BC0000F4B9B5C3B727A7B3B7B9A4207D107F1A0
:103BD00008031846FEF7CEFD0346FB8108E007F117
:103BE00008027B7B11461846FFF778FA0346FB81F3
:103BF000FB8918461037BD4680BD00BF6C540000DD
:103C00007854000080B582B000AF78602448FDF79A
:103C100008FA0346013B052B1ED801A252F823F0F7
:103C2000393C0000413C0000493C0000593C000088
:103C3000593C0000513C00007B6806221A700FE0DE
:103C40007B6804221A700BE07B6805221A7007E07B
:103C50007B6807221A7003E07B6804221A7000BF99
:103C60000F48FDF7ECF903469BB201339AB27B682B
:103C70005A800B48FDF7F1F903469BB201339AB223
:103C80007B689A800648FDF7F6F903469BB201333C
:103C90009AB27B68DA8000BF0837BD4680BD00BF9E
:103CA0000040064080B586B000AF396011461A4624
:103CB0000346FB710B46BB7113467B710023FB82ED
:103CC00000237B752948FDF7ACF90346022B18D178
:103CD000FB7983F00103DBB2002B02D00123FB82CE
:103CE0000FE007F110031846FFF7EEFC0220FFF784
:103CF00069FC0346FB82FB8A002B0CBF01230023D7
:103D00007B75FB8A002B2BD13B68002B06D1002151
:103D10000120FEF74DFE0346FB8214E001237B7376
:103D200001233B730023BB73BB797B727B79BB722E
:103D300001233B7207F10802FB7911461846FEF792
:103D400037FE0346FB82FB8A002B09D17B7D002BCB
:103D500006D007F110031846FEF70CFD0346FB8260
:103D6000FB8A18461837BD4680BD00BF004006409C
:103D700080B586B000AF396011461A460346FB7124
:103D80000B46BB7113467B710023FB8200237B75BE
:103D90002848FDF746F90346032B18D1FB7983F039
:103DA0000103DBB2002B02D00123FB820FE007F1FD
:103DB00010031846FFF788FC0320FFF703FC0346B7
:103DC000FB82FB8A002B0CBF012300237B75FB8A3F
:103DD000002B2AD13B68002B07D1FB790021184624
:103DE000FEF74AFE0346FB8212E00023BB73BB7959
:103DF0007B727B79BB7200233B7200237B7307F1DC
:103E00000802FB7911461846FEF736FE0346FB8290
:103E1000FB8A002B09D17B7D002B06D007F1100314
:103E20001846FEF7A7FC0346FB82FB8A18461837A4
:103E3000BD4680BD0040064080B485B000AF03465B
:103E4000FB710023FB73FB79002B02D0012B03D005
:103E500005E00023FB7302E00123FB7300BFFB7B43
:103E600018461437BD4680BC704780B588B000AF97
:103E7000396011461A460346FB710B46BB71134667
:103E80007B710023FB8300237B773848FDF7C9F85B
:103E90000346012B18D1FB7983F00103DBB2002B21
:103EA00002D00123FB830FE007F118031846FFF748
:103EB0000BFC0120FFF786FB0346FB83FB8B002BEB
:103EC0000CBF012300237B77FB8B002B49D13B6880
:103ED000002B07D1FB7900211846FEF72FFE034681
:103EE000FB8331E03B685B68BB6000233B730023CE
:103EF0003B75BB793B747B797B743B685B78184678
:103F0000FFF79AFF03467B730023BB73BB68184A15
:103F1000934206D9BB68174A934202D80223FB7327
:103F200009E0BB68134A934205D3BB68124A934227
:103F300001D80323FB7307F10802FB7911461846E9
:103F4000FEF7FCFD0346FB83FB8B002B09D17B7F37
:103F5000002B06D007F118031846FEF70BFC0346AA
:103F6000FB83FB8B18462037BD4680BD00400640D2
:103F7000FF083D0000127A00005A620280B588B046
:103F800000AF396011461A460346FB710B46BB7100
:103F900013467B710023FB8300237B772F48FDF7BB
:103FA00040F80346062B18D1FB7983F00103DBB2FE
:103FB000002B02D00123FB830FE007F11803184602
:103FC000FFF782FB0620FFF7FDFA0346FB83FB8B1E
:103FD000002B0CBF012300237B77FB8B002B37D1F9
:103FE0003B68002B07D1FB7900211846FEF73CFE09
:103FF0000346FB831FE000233B730023FB74BB7964
:104000003B747B797B743B685B89DBB2013BDBB241
:104010007B733B681B89DBB2103BDBB2BB73FB8B52
:10402000002B08D107F10C02FB7911461846FEF768
:104030001BFE0346FB83FB8B002B09D17B7F002BF0
:1040400006D007F118031846FEF794FB0346FB83DE
:10405000FB8B18462037BD4680BD00BF00400640A0
:1040600080B586B002AF03463960FB710023FB8147
:1040700001237B733B68002B04D101233B73012395
:10408000FB720DE03B689B891846FFF769FB03460E
:104090003B733B68DB891846FFF762FB0346FB7204
:1040A0003B68002B08D03B681B7883F00103DBB230
:1040B000002B01D000237B73FB79043B172B6CD8BA
:1040C00001A252F823F000BF294100003B4100004B
:1040D0004D4100005F4100009B4100009B410000FA
:1040E0009B4100009B4100009B4100009B41000060
:1040F0009B4100009B4100009B4100009B41000050
:104100009B4100009B4100009B4100009B4100003F
:104110009B4100009B4100009B4100009B4100002F
:104120009B41000071410000FB7A3A7B787B396843
:10413000FFF7B8FD0346FB8130E0FB7A3A7B787BE2
:104140003968FFF715FE0346FB8127E0FB7A3A7BCF
:10415000787B3968FFF789FE0346FB811EE0FB7A16
:104160003A7B787B3968FFF709FF0346FB8115E04E
:104170007B7B002B0CD00023009300230122012124
:104180000948FCF79DFC01210848FDF705FC05E006
:1041900000210648FDF700FC00E000BFFB8918463F
:1041A0001037BD4680BD00BF0080044000D00740EE
:1041B00080B485B000AFF8607A601A460B46FB7297
:1041C0001346BB720A4AFB681360094AFB7A1371F3
:1041D000074A7B689360064ABB7A1373044ABB7A2A
:1041E0005373002318461437BD4680BC704700BF88
:1041F0000000002080B586B000AF03460A46FB7180
:104200001346BB710023BB82FB793B73BB797B7385
:1042100000F070F9534B1A7B524B5A730123BB7356
:104220000023FB7525E04F4B9A68FB7D9B001344F0
:104230001B683B613B69002B18D03B691B79022B43
:1042400014D03B691B683A69916807F10C0210466B
:1042500098470346002B09D0424AFB7D5373BB7934
:10426000002B03D140F20313BB8207E0FB7D013337
:10427000FB753C4B1B7BFA7D9A42D4D3BB8A002B47
:1042800002D0BB79012B14D1364B1A68FB799B0005
:1042900013441B68184600F09DF80346BB82BB8A96
:1042A000002B0CBF01230023BB752E4AFB795371F1
:1042B00001E00023BB75BB7D002B30D00223BB7314
:1042C0000023FB7525E0274B9A68FB7D9B00134478
:1042D0001B683B613B69002B18D03B691B79012BA4
:1042E00014D03B691B683A69916807F10C021046CB
:1042F00098470346002B09D01A4AFB7D5373BB79BC
:10430000002B03D14FF48273BB8224E0FB7D013389
:10431000FB75144B1B7BFA7D9A42D4D31BE0002320
:10432000BB73104B9A68FB7D9B0013441B683B6179
:104330003B69002B07D03B691B683A69916807F11C
:104340000C0210469847FB7D002B03D0FB7D013B00
:10435000FB75E6E700BF00F0B7F8BB8A18461837D0
:10436000BD4680BD0000002080B400AF024B5B79E9
:104370001846BD4680BC70470000002080B483B062
:1043800000AF0B4B5A7B0A4B1B799A4202D3002396
:104390007B6007E0064B9A68054B5B7B9B001344F0
:1043A0001B687B607B6818460C37BD4680BC704735
:1043B0000000002080B582B000AF03463960FB7179
:1043C000FB7939681846FEF7D1F8034618460837D6
:1043D000BD4680BD80B582B000AF78607868FDF7DB
:1043E00048FB034618460837BD4680BD80B48BB0F5
:1043F00000AF0346B9607A60FB73164B7B62164BC5
:104400003B62164BFB61164BBB617A6A3B6A9A4270
:1044100003D1FA69BB699A4216D10E4B7B617B6866
:10442000002B09D097F90F3010339B007A691344A1
:104430001B681A467B681A6097F90F3010339B008F
:104440007A691344BA681A6000BF2C37BD4680BC35
:10445000704700BF0080FF1F000000009454000060
:104460003C57000080B483B000AF0346FB71FB797A
:1044700003F01F02064997F907305B09012000FA93
:1044800002F241F8232000BF0C37BD4680BC7047C4
:1044900000E100E080B483B000AF0346FB71FB791C
:1044A00003F01F02074997F907305B09012000FA62
:1044B00002F2203341F8232000BF0C37BD4680BCF8
:1044C000704700BF00E100E080B400AF084B1B68FC
:1044D000002B09DD064B1B68013B054A1360044BAA
:1044E0001B68002B00DC62B600BFBD4680BC704775
:1044F0002400002080B400AF72B6044B1B68013367
:10450000024A136000BFBD4680BC704724000020F3
:1045100080B487B000AF03460A46FB711346BB71F7
:104520000423FB7597F90730002B1EDAFB7903F0A3
:104530000F033B613B699B08FB60FB68012B06D0C6
:10454000FB68022B01D1114B02E0114B00E0114B33
:10455000BB60BA79FB7D02FA03F13B6903F0030308
:10456000BA681344CAB21A700BE0BA79FB7D02FA3A
:1045700003F1094A97F90730C9B213440A4683F890
:10458000002300BF1C37BD4680BC70471CED00E017
:1045900020ED00E018ED00E000E100E080B487B01D
:1045A00000AF0346FB710023FB750423BB7597F92D
:1045B0000730002B1FDAFB7903F00F033B613B69E7
:1045C0009B08FB60FB68012B06D0FB68022B01D126
:1045D000124B02E0124B00E0124BBB603B6903F050
:1045E0000303BA6813441B78DBB21A46BB7D42FA58
:1045F00003F3FB750BE00C4A97F90730134493F86B
:104600000033DBB21A46BB7D42FA03F3FB75FB7D38
:1046100018461C37BD4680BC704700BF1CED00E04B
:1046200020ED00E018ED00E000E100E080B483B090
:1046300000AF0346FB71FB7903F01F02074997F9AE
:1046400007305B09012000FA02F2603341F82320B1
:1046500000BF0C37BD4680BC704700BF00E100E0E2
:1046600080B483B000AF0346FB71FB7903F01F02F7
:10467000074997F907305B09012000FA02F240333D
:1046800041F8232000BF0C37BD4680BC704700BFF7
:1046900000E100E080B483B000AF0346FB71094A3B
:1046A00097F907305B09403352F82320FB7903F078
:1046B0001F0322FA03F303F0010318460C37BD462B
:1046C00080BC704700E100E080B483B000AF0346D7
:1046D000FB71094A97F907305B09803352F82320B0
:1046E000FB7903F01F0322FA03F303F001031846DA
:1046F0000C37BD4680BC704700E100E080B483B059
:1047000000AF78607B685B6918460C37BD4680BC9B
:10471000704780B487B000AFF860B9601346FB7192
:10472000FB685B697B610122BB6802FA03F3DB4330
:104730007A6913407B61FA79BB6802FA03F37A69FC
:1047400013437B61FB687A695A6100BF1C37BD4621
:1047500080BC704780B483B000AF786039607B68FC
:104760003A685A6100BF0C37BD4680BC704780B4C0
:1047700083B000AF786039607B683A689A6100BFA7
:104780000C37BD4680BC704780B483B000AF786002
:104790007B689B6918460C37BD4680BC704780B467
:1047A00087B000AFF860B9601346FB71FB681B6807
:1047B0007B610122BB6802FA03F3DB437A69134091
:1047C0007B61FA79BB6802FA03F37A6913437B6170
:1047D000FB687A691A6000BF1C37BD4680BC704711
:1047E00080B483B000AF786039607B683A681A6043
:1047F00000BF0C37BD4680BC704780B485B000AFA9
:1048000078600023FB607B681B68FB60FB681846D0
:104810001437BD4680BC704780B483B000AF786069
:1048200039607B683A685A6000BF0C37BD4680BC6F
:10483000704780B483B000AF786039607B683A68B5
:104840009A6000BF0C37BD4680BC704780B483B00F
:1048500000AF786039607B683A68DA6000BF0C3777
:10486000BD4680BC704780B485B000AF786000233F
:10487000FB607B681B69FB60FB6818461437BD460C
:1048800080BC704780B487B000AFF860B960134651
:10489000FB71FB79022B24D0022B35DC002B02D0DC
:1048A000012B0BD030E0FB68BA6853F8223023F0BC
:1048B0000201FB68BA6843F8221026E0FB68BA6878
:1048C00053F822303B613B6923F001033B613B69B4
:1048D00043F002033B61FB68BA68396943F8221070
:1048E00013E0FB68BA6853F822307B617B6943F0C0
:1048F00002037B617B6943F001037B61FB68BA685B
:10490000796943F8221000E000BF00BF1C37BD46A4
:1049100080BC704780B487B000AFF860B9601346C0
:10492000FB71FB68BA6853F822307B617B6923F422
:1049300070237B61FB791B0403F470237A691343B2
:104940007B61FB68BA68796943F8221000BF1C37A5
:10495000BD4680BC704780B485B000AF78603960D8
:104960007B683A6853F82230FB60FB681B0C03F04D
:104970000F03FB60FB68DBB218461437BD4680BCF2
:10498000704780B485B000AF786039607B683A6862
:1049900053F82230FB60FB6823F08073FB60FB68F8
:1049A00043F08073FB607B683A68F96843F8221033
:1049B00000BF1437BD4680BC704780B483B000AFE1
:1049C000786039607B68D3F8C02001213B6801FA28
:1049D00003F31A437B68C3F8C02000BF0C37BD4601
:1049E00080BC704780B483B000AF786039607B686A
:1049F000D3F8C02001213B6801FA03F3DB431A40DE
:104A00007B68C3F8C02000BF0C37BD4680BC704730
:104A100080B483B000AF786039603B681B7803F0E6
:104A200001027B68C3F8C4203B685B7803F01F0277
:104A30007B68C3F8C82000BF0C37BD4680BC7047F8
:104A400080B485B000AF78607B68D3F8A030FB609D
:104A5000FB6818461437BD4680BC704780B483B0ED
:104A600000AF78607B684FF0FF32C3F8A02000BF32
:104A70000C37BD4680BC704780B584B000AF78600D
:104A800039600023FB600DE0FA6813465B001344B5
:104A9000DB001A463B681344184600F0FBF9FB683C
:104AA0000133FB60FA687B689A42EDD30023184615
:104AB0001037BD4680BD80B584B000AFF860B960E6
:104AC0001346FB71FB791A46B968F868FFF7DAFEFE
:104AD00000BF1037BD4680BD80B584B000AFF86020
:104AE000B9601346FB71FB791A46B968F86800F0A3
:104AF000C9FA00BF1037BD4680BD80B584B000AF95
:104B0000F860B9601346FB71FB791A46B968F8681A
:104B1000FFF700FF00BF1037BD4680BD80B582B0F3
:104B200000AF7860396039687868FFF714FF034692
:104B300018460837BD4680BD80B582B000AF7860AA
:104B4000396039687868FFF71CFF00BF0837BD4639
:104B500080BD80B582B000AF786039603968786810
:104B6000FFF72BFF00BF0837BD4680BD80B582B080
:104B700000AF7860396039687868FFF733FF00BFAD
:104B80000837BD4680BD80B582B000AF786039601F
:104B900039687868FFF73CFF00BF0837BD4680BD25
:104BA00080B582B000AF78607868FFF749FF0346B0
:104BB00018460837BD4680BD80B582B000AF78602A
:104BC0007868FFF74BFF00BF0837BD4680BD80B552
:104BD00082B000AF78607868FFF790FD0346184612
:104BE0000837BD4680BD80B584B000AFF860B960BD
:104BF0001346FB71FB791A46B968F868FFF789FD1F
:104C000000BF1037BD4680BD80B582B000AF786070
:104C1000396039687868FFF79DFD00BF0837BD46E9
:104C200080BD80B582B000AF78603960396878683F
:104C3000FFF79DFD00BF0837BD4680BD80B582B03F
:104C400000AF78607868FFF79FFD03461846083785
:104C5000BD4680BD80B584B000AFF86008461146FF
:104C60001A4603467B810B463B811346FB71FB7959
:104C70003A897989F86800F04BFA00BF1037BD46D1
:104C800080BD80B584B000AFF860084611461A4672
:104C900003467B810B463B811346FB71FB793A89C6
:104CA0007989F86800F07CFA00BF1037BD4680BDF6
:104CB00080B584B000AFF860B9601346FB71FB7932
:104CC0001A46B968F868FFF76AFD00BF1037BD469D
:104CD00080BD80B582B000AF78603960396878688F
:104CE000FFF77EFD00BF0837BD4680BD80B582B0AE
:104CF00000AF78607868FFF780FD034618460837F4
:104D0000BD4680BD80B582B000AF7860396039683B
:104D10007868FFF781FD00BF0837BD4680BD80B5CC
:104D200082B000AF7860396039687868FFF781FD3C
:104D300000BF0837BD4680BD80B582B000AF786047
:104D4000396039687868FFF781FD00BF0837BD46D4
:104D500080BD80B582B000AF78607868FFF783FDD2
:104D6000034618460837BD4680BD000080B487B0B2
:104D700000AFF860B9601346FB71FB681B687B618C
:104D80000122BB6802FA03F3DB437A6913407B61BB
:104D9000FA79BB6802FA03F37A6913437B61FB6813
:104DA0007A691A6000BF1C37BD4680BC704780B46A
:104DB00087B000AFF860B9607A60FF237B61FB6861
:104DC000324A934246D1BB68102B58D801A252F800
:104DD00023F000BF194E0000234E00007F4E00005C
:104DE0007F4E00007F4E00007F4E00007F4E00008F
:104DF0007F4E00007F4E00007F4E00007F4E00007F
:104E00007F4E00007F4E00002D4E0000374E000008
:104E1000414E00004B4E00007B6843F001037B6174
:104E20002EE07B6843F002037B6129E07B6843F05E
:104E300004037B6124E07B6843F008037B611FE08F
:104E40007B6803F00E037B611AE07B6803F00D03BF
:104E50007B6115E0FB680E4A934211D1BB68002BC1
:104E600003D0BB68012B05D00AE07B6803F00B037D
:104E70007B6105E07B6803F007037B6100E000BF16
:104E80007B6918461C37BD4680BC704700A00440B3
:104E900000B0044080B588B000AF78607B681B68C4
:104EA0007A68526853F82230FB617B681B7A022BC8
:104EB00014D0022B1BDC002B02D0012B05D016E0F6
:104EC000FB6923F00203FB6112E0FB6923F001039D
:104ED000FB61FB6943F00203FB6109E0FB6943F0FE
:104EE0000203FB61FB6943F00103FB6100E000BFCB
:104EF000FB6923F01003FB617B685B7A1B0103F005
:104F00001003FA691343FB61FB6923F04003FB6163
:104F10007B689B7A9B0103F04003FA691343FB61B2
:104F2000FB6923F4E063FB617B68DB7AFB75FB7D47
:104F3000082B20D1524B5B6803F00F033B617B6869
:104F400018687B685B683A691946FFF730FFF860BC
:104F5000FB68FF2B0DD04A4B5B68494A23F00F03D7
:104F60005360474B5A68FB6803F00F0344491343EF
:104F70004B600023FB75FB7D1B0203F4E063FA69C1
:104F80001343FB61FB6923F40043FB617B681B7BDC
:104F9000DB039BB2FA691343FB61FB6923F47023C3
:104FA000FB617B685B7B1B0403F47023FA6913438A
:104FB000FB617B689B7B002B07D0FB6923F0807330
:104FC000FB61FB6943F08073FB617B681B687A6857
:104FD0005268F96943F822107B681B68D3F8C03027
:104FE000BB607B685B68012202FA03F3DB43BA68AB
:104FF0001340BB607B68DB7B1A467B685B6802FA08
:1050000003F3BA681343BB607B681B68BA68C3F8D4
:10501000C0207B68DB7A012B2ED17B681B695B6922
:10502000BB617B681B7D002B02D0012B0AD012E0F4
:105030007B685B68012202FA03F3DB43BA69134021
:10504000BB6108E07B685B68012202FA03F3BA697E
:105050001343BB6100BF7B681B7D012B08D17B68BC
:1050600018697B6859687B685B7D1A46FFF77EFE8E
:105070007B681B69BA695A6100BF2037BD4680BD95
:105080000080044080B588B000AFF860B960134676
:10509000FB71FB68BA6853F82230BB61FB79FB7780
:1050A000FB7F082B1DD1194B5B6803F00F037B615D
:1050B0007A69B968F868FFF77AFE38613B69FF2BB7
:1050C0000DD0124B5B68114A23F00F0353600F4B56
:1050D0005A683B6903F00F030C4913434B600023EC
:1050E000FB77BB6923F4E063BB61FB7F1B0203F426
:1050F000E063BA691343BB61FB68BA68B96943F8F6
:10510000221000BF2037BD4680BD00BF0080044094
:1051100080B487B000AFF860084611461A460346CF
:105120007B810B463B811346FB710023FB82FB8A8C
:1051300043F00103FB82FB8A43F00203FB82FB8AFC
:1051400043F01003FB82FB8A43F04003FB82FB8A9F
:1051500043F4E063FB82FB8A6FEA43436FEA534305
:10516000FB82FA8A3B891340FB82FB79002B02D039
:10517000012B08D00FE07B891A04FB8A1A43FB68D5
:10518000C3F8802007E07B891A04FB8A1A43FB6876
:10519000C3F8842000BF00BF1C37BD4680BC7047E9
:1051A00080B487B000AFF860084611461A4603463F
:1051B0007B810B463B811346FB713B891B0403F447
:1051C00070237B61FB79002B02D0012B07D00DE00F
:1051D0007A897B691A43FB68C3F8882006E07A89DC
:1051E0007B691A43FB68C3F88C2000BF00BF1C37E3
:1051F000BD4680BC704700BF72B64FF000014FF053
:1052000000024FF000034FF000044FF000054FF094
:1052100000064FF00007B846B946BA46BB46BC4642
:1052200004488546044880470448804762B6FBF737
:10523000CEF9FEE7007000201D0800007D09000087
:10524000FFF7FEBF006CDC02000000000000000061
:10525000000000000000000000000000000000004E
:10526000000000000000000000000000000000003E
:10527000000000000000000000000000000000002E
:10528000000000000000000000000000000000001E
:105290000000000000000000000073003200210048
:1052A000610049004A004B004C004D003D000000E9
:1052B000240025002B0036003100000020000000F3
:1052C000380039003A00260000003B0027005A0051
:1052D000660037002C002D002E0040006A006B0095
:1052E0006C00000000000000000000000000000052
:1052F00000000000000000000000000000000000AE
:105300000000000000000041414141410000000058
:10531000002020202020202020202000404040404D
:10532000400080004848484800303030303030304D
:105330003036303030000000000001000103000171
:10534000010201010000010001030001010201014D
:1053500000000000000000000000000000B4C404D1
:10536000006CDC02B0F3960100B4C404006CDC02F3
:10537000B0F3960100B4C404006CDC02B0F39601F3
:10538000000000000000000000000000000000001D
:10539000000000000000000000B4C404005A6202D3
:1053A000B0F39601000000000000000000000000C3
:1053B00000093D0000093D0040420F0000093D008A
:1053C00000093D0040420F0000093D0000093D007A
:1053D00040420F000000000000000000000000003C
:1053E00000000000000000000000000000093D0077
:1053F00000093D0040420F000000000000000000D6
:105400000000000000FCAC06007E5603003FAB012C
:1054100000FCAC06007E5603003FAB0100FCAC066E
:10542000007E5603003FAB010000000000000000BA
:10543000000000000000000000000000000000006C
:1054400000FCAC06007E5603003FAB01006CDC02A2
:10545000000001000103000101020101000102033B
:105460000405060708090A0B0C0D0E0F00000100C9
:10547000010300010102010100000102030405060D
:105480000708090A0B0C0D0E0F000000F8B500BF4D
:04549000F8B500BFAC
:1054940041010200004201020000460102000047EF
:1054A4000102000048010200004A010100004B0112
:1054B4000100004C0101000044010200004501020A
:1054C400000049010200003C010200003D0102000D
:1054D400003E010200003F010200004301020000FF
:1054E40029010000002A010000002B010000002C0B
:1054F400010000003A0100000037010000003801FB
:1055040000000032010000003401000000350100F9
:10551400000036010000002D010000002E010000F3
:10552400002F0100000030010000003101000000E4
:10553400010101010101000001010000010001005D
:1055440000127A00000100030101000000010000C4
:1055540000000C0002030000010000000000000035
:105564000000000003010100000303000102030125
:10557400000600010101000001000001010000001B
:105584000100000080841E000000000000000000F4
:105594000000000000000000000000000000000007
:1055A40001010101010101010000000020000000CF
:1055B4000084FF1F01010000A084FF1F00B004400D
:1055C40000000000000000010000000080F00F4017
:1055D4000100000000B004400100000000000001D0
:1055E4000000000080F00F400100000000B0044003
:1055F4000C000000000000010000000080F00F40DB
:105604000000000000B004400D0000000000000194
:105614000000000080F00F400000000000B00440D3
:105624000E00000000000000000000000000000068
:105634000000000000C004400F0000000000000152
:1056440000000000C0F00F400100000000C0044052
:10565400100000000000000100000000C0F00F4036
:105664000100000000D00440040000000000000518
:1056740000000000000000000000000000D0044012
:10568400050000000000000500000000000000000C
:1056940000000000006CDC02410102000042010233
:1056A400000029010000002A010000002B01000075
:1056B400002C01000000340100000035010000004E
:1056C400360100000043010200003A010000003CE2
:1056D400010200003D010200003E010200003F0102
:1056E40002000044010200004501020000460102DC
:1056F40000004701020000480102000049010200C5
:10570400004A010200004B010200004C01020000AB
:10571400370100000038010000002D010000002EB8
:10572400010000002F0100000030010000003101E1
:0857340000000032010000003A
:04000003000051F9AF
:00000001FF
